:100000006F00E030000000003A0100003C010000F9
:1000100000000000000000000000000000000000E0
:1000200000000000000000000000000000000000D0
:100030000C030000000000000C03000000000000A2
:100040000C0300000C0300000C0300000C03000074
:100050000C0300000C0300000C0300000C03000064
:100060000C0300000C0300000C0300000C03000054
:100070000C0300000C0300000C0300000C03000044
:100080000C0300000C0300000C0300000C03000034
:100090000C0300000C0300000C0300000C03000024
:0800A0000C0300000000000049
:1000A800511126C022C206C4828282441244A24050
:1000B80031018280634E050263C305042E86AA853A
:1000C8007D5515C285466378B6006356C00006069E
:1000D8008606E36CB6FE014563E4C500918D558D37
:1000E80085820582F5FA82808682C93F2E858282C2
:1000F8003305A0406347B000B305B040C1B7B305AE
:10010800B0408682653F3305A0408282868263C7FD
:100118000500634905005D372E858282B305B0402E
:10012800E35B05FE3305A040513F3305B0408282B2
:10013800000001A0B707EFBE37E700E09387070884
:100148003CC701A0EFF2DFF5511185451305000208
:1001580002C002C202C48925930700047C803715B7
:100168000140C1473EC48A858547130505403EC204
:100178001D2431011DBFEFF2BFF205459D2B15224D
:10018800EF00606F716513050520EF006075B70714
:10019800002083A507010565130505FFEF00105D25
:1001A800F522AA85056513050500EF00305C056595
:1001B80013050501EF00B05D371401406137814434
:1001C800130404401305A00FEF00606E81E8054694
:1001D8008544930500042285152CEDB7014681441A
:1001E800CDBFEFF2FFEB8946B72702403714024034
:1001F80094C31C403707FF68C17493E717001CC0FD
:100208005C40FD14F98F5CC01C403707D7FE6D17A2
:10021800F98F37071000D98F1CC01C403707FCFF27
:100228007D17F98F1CC05C40E58F5CC0B7079D0047
:100238001CC41C4C93E707021CCCB71701409387DA
:10024800074098431377F7F098C398431367070854
:1002580098C394CBC9225C4037070001B706000257
:100268005CC05C40E58F5CC05C405CC01C40D98FC2
:100278001CC0B71702409843758F75DFD843B7166F
:100288000240719BD8C3D84313672700D8C32147BE
:10029800DC42B18BE39EE7FEB7270240094798C3CB
:1002A80029B5371702405C43A146B18B6392D70446
:1002B8005C433775DC02130505C0B7160240D84207
:1002C800B70700209387070011833D8BBA979C23BB
:1002D800D84293F5F70F13770708B357F50011EFD6
:1002E800EFF21FDCE13B370700202328A70075BB8E
:1002F80037356E0113050560C9B737070020232875
:10030800F700828001A0970100209381A1521381F8
:10031800817C171500001305A5D697050020938545
:10032800E5CD170600201306E6D063FAC500832240
:10033800050023A0550011059105E3EAC5FE170540
:100348000020130525CF938581806377B50023208E
:1003580005001105E36DB5FE8962938202887390EA
:1003680002308D427390428097020000938202C946
:1003780093E2320073905230EFF0BFE6970200002C
:100388009382A2DF7390123473002030B7F7FF1FF7
:1003980003A547708280944593F7060113F3F6008E
:1003A80081C7DC413363F30083D2050093F7F20F72
:1003B800A9CF0C41611122C226C081479303800254
:1003C8003D449304800405473317F70033F6E200F1
:1003D8006310C7026397760258C91396270033172C
:1003E800C4001347F7FF6D8F3316C300B365E600EB
:1003F80085072147E399E7FC12440CC18244210197
:100408008280E39C96FC18C9C9BF828019C20CC9B6
:1004180082804CC98280EFF2BFC85111854513050F
:10042800C00302C002C202C4852EB7F7FF1F03A78C
:100438004770B7065200938606609377F7F0638596
:10044800D70A63E1F60CB706240093860660638F2B
:10045800D71E63EFF602B706220093860660638E06
:10046800D72463EFF600C1779387F7F0F98F370742
:10047800200013070760639BE7009307900F2DA8E0
:1004880037072300130707606383E720310131B979
:10049800B7065000938606606383D71A63E0F604B4
:1004A800C1779387F7F07D8FB70740009387076080
:1004B800E39EE7FC9307900E371401407C808A8501
:1004C80093078002130504803EC4F1359307F007B3
:1004D8007C808A85130504C07D3D4DBF37075100D8
:1004E80013070760E394E7FA93079006371401406F
:1004F8007C808A8593078002130504803EC4613D91
:10050800AD47F9B73707640013070760E387E7F6D5
:100518006361F7063707620013070760E38CE7F8A3
:100528006364F7043707530013070760638DE70C0C
:100538003707610013070760E39AE7F49307000899
:10054800371401407C808A85930780021305048054
:100558003EC49135930740078A85130504C07C8003
:100568001D3D9307800CADA0370763001307076094
:1005780081B737177300130707806386E702636B39
:10058800F70037177000130707806388E7043707F9
:1005980071004DB73717740013070780E398E7EE2B
:1005A8009307000C71BF9307000C371401407C803F
:1005B8008A8593078002130504803EC4E93B9307AC
:1005C80040078A85130504C07C80F1339307900C9B
:1005D8007C808A853715014001B79307000C3714D2
:1005E80001407C808A8593078002130504803EC4FD
:1005F8005D33930740078A85130504C07C80613BFF
:100608009307B00CF1B793079006371401407C802C
:100618008A8593078002130504803EC4AD3BAD472D
:100628008A85130504C07C80BD339307C0028A8580
:10063800371501407C8085339307C006A1A0930736
:10064800800C7C80930780023EC461B79307900FAB
:10065800371401407C808A85930780021305048043
:100668003EC4153B9307F0078A85130504C07C80B8
:100678001D339307900E8A85371501407C80213BF6
:100688009307D0087C808A8513050440B1B5930789
:10069800900F371401407C808A85930780021305E8
:1006A80004803EC4CD399307F0078A85130504C03A
:1006B8007C80D531930760029DBF9307900F371454
:1006C80001407C808A8593078002130504803EC41C
:1006D800D9319307F0078A85130504C07C806539F2
:1006E800930700028A85371501407C806D31B54734
:1006F80051BFB707002023ACA7028280EFF25F9AB0
:10070800371702405C43A1462A84B18B6391D7080E
:100718005C43B777DC02938707C01CC037160240DA
:10072800544237070020130787029182BD8A369703
:10073800082358429375F50F1377070833D5A70098
:1007480019E33E85A53A48C008C448C4B717024013
:10075800DC438D46AD83FD8B13D737008A07F18BB9
:10076800D98F13F6370113F7370063F4C6001387E0
:1007780047FFB7170240DC4363C90700B7070020EB
:1007880093874701BA978C23153A08C839BAB737FF
:100798006E019387076051B799C5371702401C4F00
:1007A800C98F1CCF8280B7170240984F1345F5FFB9
:1007B800798D88CF8280EFF2BF8E1629F577FD17E5
:1007C800FD8EFE21DA252111D58F1EA95625FD772C
:1007D8009387379FFD8EDE212A84AE84D58F962598
:1007E800D58FB625D58F5EA55E29C207C18393F73D
:1007F800F7CFD98F5EA948001137B74701409387D3
:1008080007806315F404C24765453385A7028C4009
:100818008A05EFF0BF8A930540062AC0EFF01F8AC9
:1008280093144500024593054006EFF0FF8B12052F
:100838009305400613052503EFF05F883D89458D34
:10084800420541810AA461016FF03F86B2476DBF3E
:100858005E2589C50967D98F5EA5828079777D175E
:10086800F98FDDBF93F5F51F4EA182800A216D8DAA
:100878003335A0008280EFF2BF82B707002003A5BE
:100888000701B7157A0093850520EFF03F831375AC
:10089800F50FB7070020238FA7029307803E330583
:1008A800F502B7070020239EA7026FF01F80B7F755
:1008B80000E0D843799BD8C3370700200357C70304
:1008C8003307A70298CB23A40700984313671700A0
:1008D80098C3D843058B75DF9843799B98C382806A
:1008E800EFF20FFC2A8411651111854513050502E5
:1008F8006535930700027C803715014085473EC265
:100908008A85E147130505403EC4713422C6374441
:100918000140B70708006C00130504803ECA02C8EE
:10092800231C0100493D85451305048015377101D5
:100938006FF0AFF7EFF2CFF661112EC232C001446B
:1009480082476358F402B7440140B7470140930512
:10095800000413850780193F6DD9924713850480D9
:10096800B3868700838506000504C205C181DD3D85
:10097800C1BF024521016FF04FF3411106C62EC0D9
:100988000DCD1841AA8705C358417D5511CB854621
:10099800631BD70098472300070023A207000545DB
:1009A800B240410182809847824614A398470507C0
:1009B80098C7D8437D17D8C3DDB705468A859D3FBC
:1009C800F9BF011126CA06CE22CC2AC02EC2B28493
:1009D80093F71600634D06082E853EC63AC4368442
:1009E800DD2B2247B2472A83635195086351E504FA
:1009F800998C13040002C1EFA687634FF006A687FF
:100A080063D3040081479D8C635BE302330767402F
:100A1800BA860245930500033AC83EC636C4B13FBC
:100A2800A246B2474247FD16EDF6BA9709A8898C47
:100A3800098861D05DFF95CF8147130400033E8785
:100A48001246B306F740B29683850600B9E1A68739
:100A58006349F004268663D304000146F2406244E9
:100A6800D2443305E600056182808144D1B7014351
:100A780049B71304000349B70245A2853AC81AC604
:100A88003EC4E53DA24742473243FD17BDB7814703
:100A9800A5BF02453AC63EC4CD353247A247050731
:100AA80045B70245A2853AC43EC2C13D9247224796
:100AB800FD1779BF397126DA06DE22DC2AC03EC46A
:100AC8002E83BA8491EDA246930700030147268638
:100AD8006C08FC86FD35F2506254D2542161828044
:100AE800B285368491CA294701446317E6006355E5
:100AF80003003303604005448647A3090102130736
:100B08003103938767FC3EC61A853ACA2EC81AC2B3
:100B1800EFF08FDDA5471243C245524763D4A700C3
:100B2800B2473E95130505039307F7FFA30FA7FEEA
:100B38001A853ACC2ECA1AC83EC2EFF02FD84243C3
:100B4800D24562476376B30411C8B1C4A247898B02
:100B5800B9C302459305D002FD140535A247918B10
:100B680085C3064793071006024593050003631ED5
:100B7800F70221359305800702450904F914F53B6E
:100B88001647A246924502452686253D2295A1B7DD
:100B980012472A8395BF92469307D0020144A38F38
:100BA800F6FE9307E7FF3EC255BFC13B930580059C
:100BB800E1B70145828001458280130181FD22D081
:100BC80006D226CE2AC62EC4328302C80144A247C2
:100BD8008385070089EDB24781C781453E85713B12
:100BE800925022850254F2441301810282809307B5
:100BF8005002638BF50032451ACA0504BD3B5243C7
:100C0800A24785073EC4E1B7A247938417008387AC
:100C18001700639AB7003245930550021ACA0504B3
:100C2800A93B26C4E9BFC5DB1307D0026387E702E7
:100C3800634CF70013073002638EE7041307B00212
:100C48006386E704814731A813070003E39CE7FEA6
:100C5800A24793842700894729A0A24793842700A5
:100C68008547038704009306D0026301D70463C84D
:100C7800E60293063002630ED7029306B002630CB5
:100C8800D70226C40145A546A94281A0A24793845C
:100C980027004DBFA247938427009147D9B79306F1
:100CA8000003E310D7FE93E7270031A085048547AA
:100CB800C9BF93E747008504E9B7330555026207C2
:100CC80061873A95224705073AC422470306070079
:100CD800130706FD9375F70FE3F1B6FE1307E0025D
:100CE80099466312E60222478146254605073AC41B
:100CF800A945224703070700130707FD9372F70F5B
:100D0800637A560236C822471306C006030707004F
:100D18006302C7046349E602130680066306C70830
:100D28001306A006630BC7081306C0046307C708A9
:100D3800014635A8B386B60262076187BA9622478C
:100D480005073AC47DB7130640076308C7061306AC
:100D5800A007E9BF2246830516000D466396E50005
:100D68002247114605073AC4224705073AC42247D5
:100D7800930500060307070063D5E504930580077C
:100D8800E3C0E5E893052006E3DCE5E61307D7F9B9
:100D98001377F70FD545E3E5E5E685650A079385FB
:100DA800C5022E971843028722468305160001467E
:100DB800E39FE5FA2247090755BF224705073AC4CA
:100DC80085BF9305700463C7E50213064004634BAF
:100DD800E61693063004E315D7E2032703009304CD
:100DE8004300A30C0100230CE100BE8601472A86BC
:100DF8002C08A9A09305800593061004E312B7E018
:100E080011476313E6088325030003264300930470
:100E1800830036C23EC00147AA87C1463245513BCE
:100E28002A942683F1BB832503009304430081E5BC
:100E38008565938545024247BE862A8632455136E6
:100E4800C5B711476310E602130710068325030090
:100E580003264300930483003AC23EC00547AA878D
:100E6800A9466DBF424783250300930443003AC255
:100E7800130710063AC085462A87294632451D3988
:100E880045B793061006ADBF424783250300930478
:100E980043003AC236C02A8781464146C5B7114742
:100EA800631FE6001307100683250300032643008B
:100EB800930483003AC23EC00147AA8755B7424708
:100EC80083250300930443003AC2130710063AC06F
:100ED80081462A875DB7114793E74700631CE60000
:100EE8001307100683250300032643009304830099
:100EF8003AC20DB7424783250300930443003AC220
:100F0800130710063AC041BF11476310E6021307E2
:100F180010068325030003264300930483003AC286
:100F28003EC00147AA87A146D5BD42478325030095
:100F3800930443003AC2130710063AC081462A8731
:100F480021462DBF13071004832503009304830053
:100F5800032343003AC22A8732453EC01A86B68721
:100F6800A946913975BD13071006F9BF1301C1FDD4
:100F78002EC832CAAA851008014506C636CC3ACE14
:100F88003ED032C01D39B240130141028280411166
:100F980022C426C206C683070500AA840144DC8150
:100FA800050499EFA9479305310005460145DC8101
:100FB800EFF05F98B240228522449244410182803A
:100FC8000546930531000145EFF0DF96B3878400AD
:100FD80083870700E9B7AA879823850775FF3385B4
:100FE800A7407D158280000053797374656D436C4A
:100FF8006B3A25640D0A00004368697049443A2534
:101008003038780D0A0000004750494F20546F6768
:10101800676C6520544553540D000000286E756CAC
:101028006C290000E20D00004A0E00006E0F00005F
:101038006E0F00006E0F0000080C0000080C000086
:10104800080C0000080C0000080C0000080C000048
:10105800080C0000100F0000DE0E0000080C000055
:10106800080C00002E0E0000080C0000A60E000060
:0C107800080C0000080C00008A0E0000AC
:101084000102030405060708010203040506070814
:10109400006CDC020204060804080C100810182076
:1010A4001020304020406080010203040506070838
:0810B400010203040506070810
:00000001FF
